:020000040800F2
:10000000800F002089010008D3190008BB140008E4
:10001000D1190008F3020008452000080000000084
:10002000000000000000000000000000C91C0008E3
:10003000F502000800000000651B0008CB1C00084A
:10004000A3010008A3010008A3010008A301000800
:10005000A3010008A3010008A3010008A3010008F0
:10006000A3010008A3010008A3010008A3010008E0
:10007000A3010008A3010008A3010008A3010008D0
:10008000A3010008A3010008A3010008A3010008C0
:10009000A3010008A3010008A3010008A3010008B0
:1000A000A3010008A3010008A3010008A3010008A0
:1000B000A3010008A3010008A3010008A301000890
:1000C000A3010008A3010008A3010008A301000880
:1000D000A301000825200008A3010008A3010008CF
:1000E000A3010008A3010008A301000800F002F822
:1000F00000F03AF80AA090E8000C82448344AAF188
:100100000107DA4501D100F02FF8AFF2090EBAE885
:100110000F0013F0010F18BFFB1A43F0010318473B
:100120009C280000BC280000103A24BF78C878C181
:10013000FAD8520724BF30C830C144BF04680C60ED
:10014000704700000023002400250026103A28BF35
:1001500078C1FBD8520728BF30C148BF0B60704739
:100160001FB51FBD10B510BD00F08AF81146FFF78E
:10017000F7FF01F0BBFF00F0A8F803B4FFF7F2FFB0
:1001800003BC00F0AFF80000094880470948004769
:10019000FEE7FEE7FEE7FEE7FEE7FEE7FEE7FEE737
:1001A000FEE7FEE704480549054A064B7047000094
:1001B0002D1D0008ED00000880090020800F0020A0
:1001C000800B0020800B002010B5203AC0F00B807F
:1001D000B1E81850203AA0E81850B1E81850A0E84B
:1001E0001850BFF4F5AF5FEA027C24BFB1E81850A5
:1001F000A0E8185044BF18C918C0BDE810405FEA15
:10020000827C24BF51F8043B40F8043B08BF704790
:10021000D20728BF31F8023B48BF11F8012B28BF95
:1002200020F8023B48BF00F8012B70474FF0000256
:1002300000B5134694469646203922BFA0E80C50DC
:10024000A0E80C50B1F12001BFF4F7AF090728BFB7
:10025000A0E80C5048BF0CC05DF804EB890028BF33
:1002600040F8042B08BF704748BF20F8022B11F05C
:10027000804F18BF00F8012B7047704770477047D8
:10028000754600F02BF8AE4605006946534620F04F
:100290000700854618B020B5FFF784FFBDE8204071
:1002A0004FF000064FF000074FF000084FF0000B32
:1002B00021F00701AC46ACE8C009ACE8C009ACE8E5
:1002C000C009ACE8C0098D46704710B50446AFF3CD
:1002D00000802046BDE81040FFF74FBF0048704740
:1002E0002009002001491820ABBEFEE726000200CD
:1002F0007047FEE7704701B5009801E0401E00908E
:100300000028FBD108BD72B6FEE710B590F82110A9
:100310000022022905D00421816380F820200120D9
:1003200010BD01680B6823F00E030B6001680B68B9
:1003300023F001030B6090F84030C46B012101FAF7
:1003400003F3636080F8211080F82020104610BD70
:1003500010B590F821100024022903D004218163F4
:1003600001243DE001680A6822F00E020A6001687B
:100370000A6822F001020A601A4A0168914201D11A
:10038000012121E0174A1432914201D110211BE0D2
:10039000144A2832914201D1891515E0114A3C32A4
:1003A000914201D189140FE00E4A5032914202D19C
:1003B0004FF4803108E00B4A6432914202D14FF48D
:1003C000801101E04FF08071064A083A5160012126
:1003D00080F82110002180F82010416B01B188477E
:1003E000204610BD0800024070B5044600F008F930
:1003F0000546601C02D004480078044400F000F96F
:10040000401BA042FAD370BD180000202DE9F84F20
:10041000DFF8B8910024A9F1040B23460F2709F156
:10042000040AABF1040EC9E00125A5402A40AA4206
:100430007DD1674ED1F804C0ACEB0608B44532D08C
:1004400014DCBCF1030F3AD009DCBCF1000F2AD058
:10045000BCF1010F1CD0BCF1020F31D11DE0BCF189
:10046000110F17D0BCF1120F2AD119E0B8F5881F6F
:1004700019D006DCB8F5803F15D0B8F5801F1FD124
:1004800011E0B8F5001F0ED0B8F5041F18D10AE02E
:10049000CB6815E0CB681B1D12E0CB6808330FE07A
:1004A000CB680C330CE08B682BB1012B4FF00803A9
:1004B00003D0456104E0042302E0056100E000236D
:1004C000FF2A01D8064601E000F104064FEA840540
:1004D00001D9A5F12005D6F8008007FA05FC28EA25
:1004E0000C0803FA05F548EA0508C6F800804D68CF
:1004F000ED0062D5374DAE6946F00106AE61AD69DB
:1005000024F0030605F001050095334D06EB050CBC
:10051000DCF80850A607360F07FA06F825EA0805A2
:10052000DFF8B880404503D14FF0000817E044E001
:10053000DFF8AC80404502D14FF001080FE0DFF852
:10054000A480404502D14FF0020808E0DFF898800F
:10055000404502D14FF0030801E04FF0040808FACB
:1005600006F848EA0508CCF808804D68D9F800601C
:10057000ED024D4601D5164300E096432E604D68CE
:10058000DAF80060AD02554601D5164300E0964307
:100590002E604D68DBF80060AD035D4601D5164363
:1005A00000E096432E604D68DEF80060ED0375466E
:1005B00001D5164300E096432E60641C0D682A4660
:1005C000E5407FF431AFBDE8F88F0000080401403A
:1005D000000011100010024000000140000801401E
:1005E000000C0140001001400014014080680840E8
:1005F00000D0012070470AB1016170470904FBE790
:1006000001488068704700001800002070B50400A1
:1006100025D094F83D00002520B984F83C502046B0
:1006200000F0E0F9242084F83D002068016821F002
:10063000010101602068016841F400410160206807
:10064000016821F40041016000F046FB4D4A6168F9
:10065000914201D84C4900E04C49884201D2012026
:1006600070BD4B492368B0FBF1F15E6826F03F0690
:100670000E435E606368934206D94FF49673594304
:100680004FF47A73B1FBF3F12368491C1E6A26F01C
:100690003F06314319626168914210D84900401EFB
:1006A000B0FBF1F2521CC2F30B02042A01D2042067
:1006B00022E0B0FBF1F0401CC0F30B001CE0A2688C
:1006C000F2B301EBC10303EB0116431EB3FBF6F3D8
:1006D0005B1C43F480431B0549D092B301EBC1027C
:1006E00002EB0111401EB0FBF1F0401CC0F30B0007
:1006F00040F4804040F400402168CA694CF6FF7322
:100700009A431043C861D4E9071001432068026886
:1007100022F0C00211430160D4E9030101432068C3
:10072000826848F2FF339A4311438160D4E905019E
:1007300008432168CA6822F0FF021043C86001E044
:100740000EE016E02068016841F0010101602564B7
:10075000202084F83D00256384F83E50002070BDC1
:1007600001EB4106431EB3FBF6F35B1CB3E701202C
:10077000C2E701EB4101401EB0FBF1F0401CC0F3A9
:100780000B00B7E7A086010080841E0000093D0031
:1007900040420F002DE9FF4F83B00025DDE91079BD
:1007A0009A4693460446DDF848800095FFF728FFF7
:1007B000064694F83D0020287CD119230122854962
:1007C0002046009600F010FF0028F5D194F83C0078
:1007D00001286FD0012084F83C0020680168C90717
:1007E00003D1016841F0010101602068016821F432
:1007F00000610160222084F83D00402084F83E0022
:1008000025646762A4F82A90608D20857248E062B2
:10081000CDE9008653465A462046049900F066FE0C
:1008200000287DD1208DDFF8B491202768B1012800
:1008300014D00228206801681ED041F48061016054
:100840002068416980690090B6E02068416981694B
:100850000091016841F400710160ADE02068016819
:1008600021F48061016072B620684169816900915C
:10087000016841F400710AE041F40061016072B660
:100880002068416981690091016821F480610160FB
:1008900062B691E0032868D801280CD002284346AC
:1008A0004FF000024946204600960FD000F09CFE13
:1008B000B0BB10E08BE032464146204600F03AFFE4
:1008C00070BB20680069616A08706CE000F08CFE03
:1008D00030BB72B634E02068016821F480610160A9
:1008E00072B620680069616A0870606A401C6062C4
:1008F000208D401E2085608D401E6085384846F260
:10090000A8110068B0FBF1F0C0EBC00000EB800064
:100910000090401E009008D020684069C04300E06D
:1009200029E040070CD50098F3E744F8305F67737F
:10093000A573206940F02000206162B625731AE09B
:100940002068016841F40071016020680069616AF3
:100950000870606A401C6062218D491E2185618D8E
:10096000491E618562B621681BE032464146204639
:1009700000F0E0FE18B1012007B0BDE8F08F20685C
:100980000069616A0870606A401C6062218D491EBE
:100990002185618D491E618521684A69D2435207CC
:1009A0000AD409690170606A401C6062208D401E93
:1009B0002085608D401E6085208D00287FF46AAF01
:1009C00084F83D7084F83E5084F83C50D4E702200F
:1009D000D2E70000020010000000FFFF0400010049
:1009E0002400002030B585B00021009101910291D2
:1009F00003911E4D03681E4C122103221D48AB4279
:100A000016D1A36943F00803A361A369039203F01D
:100A100008030493C023CDE900316946FFF7F6FCD3
:100A2000E06940F40010E061E06900F4001019E0B2
:100A3000114DAB4217D1A36943F00803A361A36929
:100A4000039203F0080304934FF44063CDE90031AF
:100A50006946FFF7DBFCE06940F48000E061E06993
:100A600000F48000049005B030BD00000054004048
:100A700000100240000C014000580040024881680C
:100A8000027811448160704718000020074810B5B3
:100A9000016841F010010160032000F075F80F209B
:100AA00000F006F800F024F8002010BD00200240FD
:100AB00070B50D4D04464FF47A712878B1FBF0F013
:100AC0000A490968B1FBF0F000F0DCFA48B9102CD3
:100AD00007D200222146501E00F036F800206C603C
:100AE00070BD012070BD000018000020240000200F
:100AF0000C4808B5816941F001018161816901F00B
:100B000001010091C16941F08051C161C06900F0EB
:100B1000805000900448416821F0E06141F000718C
:100B2000416008BD0010024000000140002809DBC0
:100B300000F01F02012191404009800000F1E020F7
:100B4000C0F8001170470000F0B40E4B1B680C4653
:100B5000C3F30223C3F10705042D00D90425191D91
:100B6000072901D2002300E0DB1E012606FA05F169
:100B7000491E214099409E40761E16403143F0BCEC
:100B800001F061BA0CED00E0064900F007020868C8
:100B90004FF6FF03184040EA0220034A1043086062
:100BA000704700000CED00E00000FA052DE9F04769
:100BB0000F46050061D0434E306800F00700B84290
:100BC00009D2306820F0070038433060306800F008
:100BD0000700B84251D128683B4C810712D5400725
:100BE00003D5606840F4E06060602878000703D5B2
:100BF000606840F4605060606068A96820F0F000B0
:100C0000084360602878C00728D06868012810D0A1
:100C10002168022810D0890700292EDA616821F0A6
:100C2000030101436160FFF7EBFC804641F2883924
:100C30000DE021688903EFE78901EDE7FFF7E0FCAC
:100C4000A0EB0801494502D90320BDE8F0876068A0
:100C5000696800F00C00B0EB810FEFD1306800F054
:100C60000700B8420BD9306820F0070038433060E5
:100C7000306800F00700B84201D00120E5E728788D
:100C8000400705D56068E96820F4E06008436060CB
:100C90002878000706D56068296920F4605040EA8A
:100CA000C100606000F038F86168084AC1F30311C0
:100CB000515CC8400649086006480068FFF7F8FE26
:100CC0000020C2E7002002400010024098290008DE
:100CD000240000201C0000200448054900684968E1
:100CE000044AC1F30221515CC8407047240000202F
:100CF00000100240A8290008044805490068496816
:100D0000044AC1F3C221515CC8407047240000204E
:100D100000100240A82900080E4A51680E4801F050
:100D20000C03042B11D0082B0FD10C48C1F38343C3
:100D3000C903C05C0AD55168084AC1F34041921EFC
:100D4000515C054A5043B0FBF1F0704704494843F9
:100D5000704700000010024000127A008829000845
:100D600000093D002DE9F84F040070D02078C04DF7
:100D7000C00749D06868C0F38100012807D06868BF
:100D8000C0F38100022809D16868C00306D528682D
:100D9000800339D560680028E7D035E06068B0F599
:100DA000803F0BD010B1B0F5A02F11D0286820F4EF
:100DB00080302860286820F4802002E0286840F411
:100DC00080302860606890B1FFF71AFC06460AE0A0
:100DD000286840F480202860F0E700BFFFF710FC8F
:100DE000801B642873D828688003F7D50CE0FFF7D0
:100DF00007FC064605E000BFFFF702FC801B6428E5
:100E0000F0D828688003F7D420789A4E80074FF0F6
:100E100001094FF0000839D5686810F00C0F07D0B1
:100E20006868C0F38100022809D16868C00306D44D
:100E30002868800714D52069012808D110E02069AE
:100E4000B0B1C6F80090FFF7DBFB074605E00AE10A
:100E5000FFF7D6FBC01B0228C4D828688007F7D547
:100E60002868616920F0F80040EAC10028600DE0C0
:100E7000C6F80080FFF7C4FB074604E0FFF7C0FB9D
:100E8000C01B022823D828688007F7D420780007E1
:100E90002CD57948A169D9B1C0F80090FFF7B0FB13
:100EA000074604E0FFF7ACFBC01B02280FD8686AB6
:100EB0008007F7D571484FF4FA510068B0FBF1F0A4
:100EC000009000BF0098411E0091FAD20EE080E031
:100ED000C0F80080FFF794FB074604E0FFF790FBA3
:100EE000C01B022875D8686A8007F7D420784007AD
:100EF00060D5E8690027C00008D4E86940F0805058
:100F0000E861E869012700F0805000905C480168C2
:100F1000C90513D40168834641F480710160FFF76D
:100F20006FFB824606E000BFFFF76AFBA0EB0A00FA
:100F300064284ED8DBF80000C005F5D5E06801282C
:100F40000AD008B1052813D0286A20F001002862D1
:100F5000286A20F0040002E0286A40F001002862BC
:100F6000E06841F2883B98B1FFF74AFB82460BE00C
:100F7000286A40F004002862EEE700BFFFF740FB5C
:100F8000A0EB0A0159455AD8286A8007F6D50CE02B
:100F9000FFF736FB824605E0FFF732FBA0EB0A01C4
:100FA00059454CD8286A8007F6D41FB1E86920F06B
:100FB0008050E861E06988B36968C1F38101022962
:100FC00044D00228C6F8608004D0FFF719FB04461D
:100FD00038E034E0FFF714FB074604E0FFF710FBAE
:100FE000C01B02282BD828688001F7D4206AB0F5EE
:100FF000803F05D16868A16820F40030084368602C
:10100000D4E908010843696821F474110843686051
:10101000C6F86090FFF7F4FA044606E025E000BF4A
:10102000FFF7EEFA001B022809D828688001F7D5DF
:101030001BE000BFFFF7E4FA001B022802D90320DF
:10104000BDE8F88F28688001F4D40EE00128F7D0BD
:101050006868226A00F48031914204D1616A00F428
:101060007010884201D00120EAE70020E8E7000084
:10107000001002400000424280044242240000204E
:101080000070004010B5401EB0F1807F01D30120F8
:1010900010BD4FF0E02460610F21601700F0D3FF16
:1010A0000020A06107202061002010BD704770471C
:1010B000F8B5016804460868CA684B6910F00F0F5C
:1010C0004FF0000559D003F0010602F49077374342
:1010D00065D0C10705D0D10503D5616C41F0010190
:1010E0006164410705D5D90703D0616C41F0020165
:1010F0006164810705D5D90703D0616C41F0040113
:101100006164010707D502F02001314303D0616C0F
:1011100041F008016164616C00293AD0800604D571
:10112000900602D5204600F068FE20684069616C98
:10113000C0F38010090700D460B3204600F036FEEB
:1011400020684069400621D52068143050E8001F0F
:1011500021F0400140E80012002AF5D1E06BA8B16F
:101160006D494163E06BFFF7F3F8002811D0E06BA5
:10117000416B01B0BDE8F040084783060FD59306E8
:101180000DD52046BDE8F84000F037BE2046FFF7F9
:101190008EFFF8BD2046FFF78AFF6564F8BD266B19
:1011A0002023012E7CD1C6067AD5D60678D50868CC
:1011B0004868009048694FF00206400640D5E16B50
:1011C000086840680004000CE8D0A28D8242E5D98E
:1011D000E085886920282DD020680C3050E8001F59
:1011E00021F4807140E80012002AF5D12068143003
:1011F00050E8001F21F0010140E80012002AF5D15B
:101200002068143050E8001F21F0400140E800122F
:10121000002AF5D184F84230256320680C3050E86C
:10122000001F21F0100140E80012002AF5D1E06B08
:10123000FFF76BF86663A08DE18D401A81B22AE05A
:10124000A08DE18D401A81B2E08D0028A6D0002942
:10125000A4D022680C3252E8000F20F4907042E8CB
:101260000007002FF5D12068143050E8002F22F03D
:10127000010240E80027002FF5D184F842302563B1
:1012800020680C3050E8002F22F0100240E80023C4
:10129000002BF5D166632046FFF708FFF8BDFFE796
:1012A00005062BD5150629D594F841002128F5D13E
:1012B000A068B0F5805F01D12069B0B1206A411CFF
:1012C0002162216800784860E08C401E0004000C18
:1012D000E084E3D12068C16821F08001C16020680A
:1012E000C16841F04001C160D8E7206A0088C0F3BE
:1012F00008004860206A801C2062E5E74006CDD5E2
:101300005006CBD5CA68204622F04002CA6084F855
:10131000413000F0D1F8C1E79D1D000870B5040010
:1013200004D094F84100002510B106E0012070BD02
:1013300084F84050204600F023F8242084F841002F
:101340002068C16821F40051C160204600F0B6FD5C
:101350002068016921F4904101612068416921F010
:101360002A0141612068C16841F40051C16065648F
:10137000202084F8410084F842006563002070BD9D
:1013800030B585B000240094019402940394006861
:10139000184988422CD11848816941F48041816103
:1013A000816901F480410491816941F00401816106
:1013B0008069124D00F0040004904FF4007000901A
:1013C000022001900320039069462846FFF71EF88B
:1013D0002815CDE90004694628460294FFF716F85F
:1013E000002211462520FFF7AFFB2520FFF79EFBCB
:1013F00005B030BD00380140001002400008014037
:1014000090F84230202B01D00220704721B11AB150
:101410000023036300F0AEBD0120704770472DE943
:10142000F843044690F841001F4616460D46202812
:1014300002D00220BDE8F8837DB176B1002060645F
:10144000212084F84100FFF7DBF8A6848046E6847B
:10145000A068B0F5805F02D003E00120EAE72069D0
:1014600010B12E4600250EE000260CE0802120461B
:1014700000F09BFDA0B9AEB116F8010B21684860E1
:10148000E08C401EE084E08C43464FF00002009761
:101490000028EBD14FF04001204600F086FD30B12E
:1014A0000320C7E735F8020BC0F30800E6E7202069
:1014B00084F841000020BDE77047FEE701684A69F3
:1014C000D24352050FD46FF480624A61002140F884
:1014D000301F202242738173026942F004020261CC
:1014E0000173012070470020704700002DE9F84F7C
:1014F0000446006889460B9D01689846174641F4EA
:10150000806101602068016841F48071016000958C
:101510004FF0011B0022594620460A9B00F064F858
:101520004FF4007A40B120680068C00501D5C4F8C6
:1015300040A00320BDE8F88F216809F0FE00086193
:101540002B46284920460A9A00F096F8F0BB2068FE
:101550004169806900902A4620460A9900F022F9E4
:1015600040B1206C04283AD12068016841F4007130
:10157000016034E0FEB2B8F1010F09D02168380AE9
:1015800008612A4620460A9900F00CF90028E8D1A3
:10159000206806612A4620460A9900F003F90028CF
:1015A000DFD12068016841F480710160009500225C
:1015B000594620460A9B00F017F80028B3D121684D
:1015C00009F0FF0040F00100086100E007E02B4651
:1015D000044920460A9A00F04FF80028AAD00120BA
:1015E000A8E70000020001002DE9F04798461746E1
:1015F0000D460446C1F30746DDF820902AE000BFFF
:10160000B8F1FF3F26D0FEF7FBFFA0EB09014145F3
:1016100002D8B8F1000F1DD12068012E16D08069C4
:1016200025EA00000004000C12D00020B84211D1BD
:10163000002044F8300F20216173A073216941F02C
:101640002001216120730120BDE8F0874069E7E7B0
:101650000120EBE72068012E0AD0806925EA00000E
:101660000004000C06D00020B842C9D00020EBE7EF
:101670004069F3E70120F7E72DE9F0479846164661
:101680000D4604464FF000094FF0200AC1F307470A
:1016900023E020684069C043400515D420680168F4
:1016A00041F40071016021686FF480604861C4F802
:1016B000309084F83DA084F83E90216C41F0040104
:1016C000216484F83C9021E0701C06D0FEF798FF5E
:1016D000A0EB0800B04203D816B1012F1FD021E0C3
:1016E0002068012F15D0806925EA00000004000C55
:1016F00018D000BF44F8309F84F80DA084F80E90F5
:10170000216941F02001216184F80C900120BDE89D
:10171000F087406925EA00000004000CEAD1206847
:10172000406901E02068806925EA00000004000C9F
:10173000AFD1ECE72DE9F041002590460E46044676
:10174000202728E04069C043C0060CD454F8301B61
:101750006FF01000486144F810596777A577206A48
:101760002062257714E0FEF74BFFA0EB0800B042A3
:1017700000D886B920684069C04340060BD544F8BC
:10178000305F6773A573206940F0200020612573E6
:101790000120BDE8F08120684169C9434906D1D4E0
:1017A0000020F6E770B516460D4604461EE02046BA
:1017B000FFF784FE08B1012070BD681C16D0FEF74B
:1017C0001FFF801BA84200D885B920684069C0432C
:1017D00000060BD5002044F8300F20216173A07360
:1017E000216941F0200121612073E4E7206840690C
:1017F000C0430006DBD4002070BD00007FB536205A
:101800000124CDE900040220144E0290039000252B
:1018100069463046FEF7FAFD012220213046FEF7E8
:10182000EAFE012204213046FEF7E5FE0920CDE95B
:101830000005694602943046FEF7E8FD0122114694
:101840003046FEF7D8FE002220213046FEF7D3FEB8
:10185000012204213046FEF7CEFE7FBD0008014084
:101860002DE9F04186B000242848009401940294A8
:101870000394816941F010018161816901F01001D7
:101880000491816941F020018161816901F02001A9
:101890000491816941F004018161816901F00401D1
:1018A0000491816941F0080181618069184F00F05D
:1018B00008004FF400550490002229463846FEF7F0
:1018C0009AFEDFF85080002236214046FEF793FE54
:1018D0000095022601250396CDE901546946384654
:1018E000FEF794FD0920CDE90004694640460294C4
:1018F000FEF78CFD3620CDE90005CDE902466946AC
:101900004046FEF783FD06B0BDE8F08100100240BE
:1019100000100140000801400D4810B50B4901605E
:101920000C49416000214FF480428160C0E90312FC
:1019300041618161C1610162FEF768FE002803D048
:10194000BDE81040FEF7DFBC10BD000000540040B1
:1019500030080020801A06000D4810B50B490160C0
:101960000C49416000214FF480428160C0E90312BC
:1019700041618161C1610162FEF748FE002803D028
:10198000BDE81040FEF7BFBC10BD0000005800408D
:1019900084080020801A06000C4810B50A4901602E
:1019A0004FF4E1314160002181600C22C160C0E947
:1019B00004128161C161FFF7B1FC002803D0BDE8CA
:1019C0001040FEF7A0BC10BD00380140D808002030
:1019D000FEE7FEE71FB50FA10522D1E90001CDE921
:1019E000020102A9302000F07FF80522694610208C
:1019F00000F014F8002069460A5CA52A03D1401CB7
:101A0000C0B20528F8D3052802D0012004B010BDCB
:101A10000020FBE7A5A5A5A5A50000002DE9F04144
:101A2000DFF83C8015460F4604460022042140465C
:101A3000FEF7E1FD204600F019F90646002405E016
:101A4000002000F013F93855641CE4B2AC42F7D31F
:101A5000012204214046FEF7CEFD3046BDE8F0816C
:101A60000008014070B50A4D0446002204212846B2
:101A7000FEF7C1FD204600F0F9F8002000F0F6F86E
:101A80000446012204212846FEF7B5FD204670BD1C
:101A90000008014070B5134D04460022202128465D
:101AA000FEF7A9FD20222146A02000F01DF801220A
:101AB00020212846FEF79FFD0720FFF7D3FF0446AD
:101AC0000146272000F034F8E00605D5FF21E1208B
:101AD00000F02EF8102070BDA00601D5202070BDAA
:101AE000FF2070BD000801402DE9F041DFF83C8087
:101AF00016460D460446002204214046FEF77BFDB3
:101B0000204600F0B3F80746002405E015F8010B65
:101B100000F0ACF8641CE4B2B442F7D30122042113
:101B20004046FEF768FD3846BDE8F08100080140F8
:101B300070B50B4D0E460446002204212846FEF7E0
:101B40005AFD204600F092F80446304600F08EF828
:101B5000012204212846FEF74EFD204670BD0000FC
:101B600000080140704700000FB42A2230B5A9B028
:101B70002CA911A8FEF728FBBDF8DA00ADF86E001D
:101B800037981C9038981D9039A909220D461EA837
:101B9000FEF71AFB9DF8ED008DF881009DF8EE0030
:101BA0008DF882003C9821903D9822903E98239099
:101BB0003F98249040982590442215A96846FEF746
:101BC00003FB11AC94E80F0000F04EFA244CE8B38C
:101BD0002A222CA913A8FEF7F7FABDF8DA00ADF80F
:101BE000760037981E9038981F900922294620A821
:101BF000FEF7EAFA9DF8ED008DF889009DF8EE00F9
:101C00008DF88A003C9823903D9824903E9825902A
:101C10003F982690409827904C2215A96846FEF7D9
:101C2000D3FADDE913230D210C2000F0C5FB00F0F1
:101C300055FD0C4D2060294600F064FD0A4900F076
:101C40008BFC606010F1FF4F05D300E003E02946F4
:101C500000F020FC6060606829B030BC5DF814FBC7
:101C6000280000200000B44300F07F4570B5154EF9
:101C700004460025200601D5012200E000220221B1
:101C80003046FEF7B8FC6006040E012210213046F3
:101C9000FEF7B1FCFF20FEF72EFB08213046FEF7D1
:101CA000A5FC08B144F00104002210213046FEF7E3
:101CB000A2FCFF20FEF71FFB6D1CADB2082DD9D38F
:101CC000204670BD000801407047FEF7D7BE30B512
:101CD0008FB028216846FEF7A9FA14210AA8FEF75A
:101CE000A5FA01210804CDE9001000240294022580
:101CF0000491CDE907504FF4E01009906846FFF7D2
:101D000031F808B172B6FEE70F20CDE90A054FF4AD
:101D10008060CDE90C4002210AA80E94FEF746FF30
:101D2000002801D072B6FEE70FB030BD704700004A
:101D300010B5184C002220212046FEF75CFC05223D
:101D400015493020FFF7D0FE13490522491D2A20EE
:101D5000FFF7CAFE01212120FFF7EAFE0121222020
:101D6000FFF7E6FE1A212420FFF7E2FE28212520B6
:101D7000FFF7DEFE0F212620FFF7DAFE0E212020DE
:101D8000FFF7D6FE20460122BDE810402021FEF7D5
:101D900032BC000000080140B029000810B5406ABC
:101DA0000021C185C184FFF782F910BD01680C31A3
:101DB00051E8002F22F4907241E80023002BF5D166
:101DC0000168143151E8002F22F0010241E800239C
:101DD000002BF5D1016B012909D101680C3151E8C3
:101DE000002F22F0100241E80023002BF5D1202122
:101DF00080F8421000210163704708B590F8421046
:101E0000222901D0022008BD82684FF480539A42F3
:101E100001D1016921B1816A9A421BD04AB10AE01D
:101E20000268816A5268C2F308020A80816A891CCA
:101E300008E0026972B10268526802F07F020A701B
:101E4000816A491C8162C18D491E0904090CC18542
:101E500003D01BE002685268F1E70168CA6822F00B
:101E60002002CA600168CA6822F48072CA600168F0
:101E70004A6922F001024A61202180F842100021C3
:101E80004163026B012A03D0FFF7C8FA002008BDA6
:101E9000016301680C3151E8002F22F0100241E883
:101EA0000023002BF5D101680A68D20602D50A6822
:101EB00049680091818DFFF7F9F8E7E770B50446AE
:101EC00000680169E26821F4405111430161216910
:101ED000A0680843616908432168CA6841F20C633D
:101EE0009A430243CA6020684169A26921F44071A3
:101EF000114341611E492068884202D1FEF7FCFE71
:101F000001E0FEF7E9FE00EBC00101EB00126068A2
:101F100064218000B2FBF0F3B3FBF1F36FF018061D
:101F20007343B2FBF0F5B2FBF0F605EB8305322309
:101F300003EB0515B5FBF1F5B6FBF1F605F0F00581
:101F400005EB0615B2FBF0F6B2FBF0F0B0FBF1F0DA
:101F50006FF01802504306EB800003EB0010B0FB5B
:101F6000F1F0216800F00F002844886070BD000087
:101F70000038014081628285C285002141642221AE
:101F800080F84210016921B10168CA6842F4807288
:101F9000CA6001684A6942F001024A610068C1688A
:101FA00041F02001C160002070472DE9F0419846C2
:101FB00017460E460446069D27E0681C25D02DB125
:101FC000FEF71EFBA0EB0800A8421ED920680C30CB
:101FD00050E8001F21F4D07140E80012002AF5D12A
:101FE0002068143050E8001F21F0010140E8001281
:101FF000002AF5D1202084F8410084F84200002016
:1020000084F840000320BDE8F0812068006836EACB
:10201000000004D00020B842CFD00020F3E7012018
:10202000F9E7000010B50548FFF742F8BDE8104099
:102030000A2203490148FFF7E3B90000D80800204D
:1020400050000020FEE70907090E002804DB00F11C
:10205000E02080F80014704700F00F0000F1E0204D
:1020600080F8141D704700000FB42A2200B5A7B0F5
:1020700028A912A8FEF7A8F8BDF8CA00ADF87200AA
:1020800033981D9034981E90092235A91FA8FEF799
:102090009BF89DF8DD008DF885009DF8DE008DF839
:1020A000860038982290399823903A9824903B984B
:1020B00025903C982690482215A96846FEF784F89A
:1020C0000DF1480C0B209CE80E0000F05FF9810632
:1020D00003D5012027B05DF814FB034A0149516084
:1020E000F8E700000000C84328000020B0B0FEF769
:1020F000CDFCFFF7ECFDFFF7B3FBFFF70DFCFFF79F
:102100002BFCFFF749FC0A228F499048FFF778F92A
:10211000FFF774FBFFF75EFC8D4C08B18D48206122
:10212000FFF706FEDFF830B24FF0AB090BF13400D9
:102130002F9015A8014619A83431CDE92D01874803
:102140002C9022A919A8A246CDE92A012A22824967
:1021500015A8FEF739F8BBF82A005C46ADF87E00FA
:10216000DBF82C002090DBF830002190DDE92E0117
:102170000922FEF729F894F83D008DF8910094F8B3
:102180003E008DF89200206C2590606C2690A06C2B
:102190002790E06C2890206D2990442268462D9964
:1021A000FEF712F80DF1540C9CE80F00FFF7DCFC71
:1021B0006A49CAF8000055462A22343915A8FEF7A4
:1021C00003F8664C343C608DADF87E00E06A2090E8
:1021D000206B2190DDE92B010922FDF7F5FF94F832
:1021E0003D008DF8910094F83E008DF89200206C2F
:1021F0002590606C2690A06C2790E06C2890206D54
:102200002990442268462A99FDF7DEFF0DF1540C0F
:102210009CE80F00FFF7A8FC514968604C4A81F820
:10222000009000200B18145C401C5C700428F9DB43
:10223000474A0020121D0C18135C401C63710428CF
:10224000F9DB0A231A4646494048FFF7E8F83E49B9
:102250000878AB2801D0012212E03D4A0020083264
:102260000B185B781354401C0428F9DB384A002013
:102270000C320B185B791354401C0428F9DB002244
:102280004FF400513748FEF7B6F90520FEF7ACF8D9
:102290003549AA46286800F001FB344C064634490B
:1022A0002060686800F0FAFA804660603149A868EA
:1022B00000F0F4FA0746A0602F49E86800F0EEFA53
:1022C0000546E0602D48864204D92D49304600F08D
:1022D000E1F820602B4E4046B04503DD284900F070
:1022E000DDFA6060B74204DD2549384600F0D6FAD1
:1022F000A060B54204DD2249284600F0CFFAE06034
:102300006068114A80F00040203A606082F80090D6
:102310000020002104EB800301EB80065D5C164485
:10232000491C75700429F7DB401C0428F1DBCD2023
:10233000507405482038FFF7ADFB20287FF406AF26
:102340001149CAF8141001E750000020D8080020F5
:10235000000000200000E040840800206408002005
:1023600038040020001001400000824320080020B3
:10237000CDCC22429A9953426666E342000034C3B0
:102380000000B44300003443008026440FB41FB55E
:1023900000218DF80C10FF23012203A98DE80E0007
:1023A000134602466C2107A8FEF7F4F99DF80C00CD
:1023B00004B010BC5DF814FB0FB42A2270B5A8B0AD
:1023C0000E4604462EA912A8FDF7FEFEBDF8E20057
:1023D000ADF8720039981D903A981E903BA90922D9
:1023E0000D461FA8FDF7F0FE9DF8F5008DF885005D
:1023F0009DF8F6008DF886003E9822903F98239035
:10240000409824904198259042982690482215A9FA
:102410006846FDF7D9FE0DF1480C20469CE80E00F9
:10242000FFF7B4FF00F00F042A222EA912A8FDF72F
:10243000CBFEBDF8E200ADF8720039981D903A98D5
:102440001E90092229461FA8FDF7BEFE9DF8F50043
:102450008DF885009DF8F6008DF886003E98229054
:102460003F98239040982490419825904298269038
:10247000482215A96846FDF7A7FE12AD304695E83B
:102480000E00FFF783FF28B040EA042070BC5DF81F
:1024900014FB000090EA010F48BF81F0004100F1F9
:1024A0000482421A3CBF801A89184FEAD0524FF07A
:1024B0007F4C1CEA410FA2EBD15318BF9CEA026F7C
:1024C00000F03B804FF0004C4CEA00204CEA012128
:1024D00021FA03FC10EB0C0C1ED202F1FF325FEA72
:1024E0001C2040EBC25038BF70471CF07F0F4FEAF2
:1024F000400C18BFBCF17F4F38BF7047C3F12003B9
:10250000994008BF20F00100BCF17F4F38BF7047F1
:10251000A0F1C04000F0BDB94FEA3C00000A40EB1A
:10252000C25028BF1CF0FF0F4FEA400CE6D018BF86
:10253000BCF17F4F38BF7047EAE79CEA026F05D0D5
:1025400010EA5C0F08BF00F00040704710B500F0C3
:102550005AF900BF64FBBE3E4FF47F0C1CEAD01258
:102560001EBF1CEAD11392EA0C0F93EA0C0F00F085
:10257000858090EA010F48BF42F4807240F4000C5D
:1025800041F400002CF07F4120F07F4000B58142F3
:10259000A2EB03020FF2081CACEB504EC0F100009E
:1025A0009EF800E04FEA4E0E00FB0EFC38BF4900DB
:1025B0004FEA2C1C02F5FA020CFB0EF34FEACE1E7A
:1025C0004FEA112C4FEAC1210EEB635E42EB22422F
:1025D0000EFB0CFC4FEA1C5300FB03114FEA112CBD
:1025E0004FEA01310EFB0CFC4FEADC4C00FB0C11F6
:1025F000C14228BF09184CEB03335DF804EB10EB24
:10260000410143EBC250B2F57C0F38BF704729D56A
:1026100012F0F00F1CBF00F1C04000F00040704706
:10262000008182838485868788898B8C8D8E8F91AB
:102630009293959697999A9C9D9FA0A2A3A5A7A8CF
:10264000AAACAEB0B2B3B5B7B9BCBEC0C2C5C7C9FB
:10265000CCCED1D4D7D9DCDFE2E6E9ECF0F3F7FA5F
:10266000FE0000004FEA400C0CF1807CBCF17E4F74
:1026700028BF7047B0F1C04000F00BB990EA010FDD
:102680000CEAD11348BF42F48072624538BF6345FB
:1026900007D213F47F0F16D080EA010000F000404B
:1026A000704710B500F0AFF8097EFC3E00F005B8A9
:1026B00080EA010000F00040704780EA010000F06D
:1026C000004000F0E6B812F47F0F04BF02487047E4
:1026D00080EA010000F0DDB80000C07FB0FA80F3AE
:1026E00010FA03F2C3F19D030AD0D90501EB1220C1
:1026F000530638BF704700F1010008BF20F0010009
:10270000704700004FF47F0C1CEAD0121EBF1CEA79
:10271000D11392EA0C0F93EA0C0F00F0478090EA75
:10272000010F48BF42F480724FF0004C4CEA002089
:102730004CEA012102EB0302A0FB0113A2F5000207
:10274000002918BF43F001035B0028BF4FEA3303A1
:1027500042EB22425FEA132C4CEBC2502EBFBCEB83
:10276000436FB2F57C0F70474FEA036CBCF1004F2A
:1027700008BF20F00100B2F57C0F38BF70470BD5C1
:1027800082F0FF0212F5803FC8BF704700F1C040E1
:10279000D8BF00F00040704700F5000C5FEA4C0C19
:1027A00048BF7047B0F1C04000F073B890EA010F25
:1027B0000CEAD11348BF42F48072624538BF6345CA
:1027C00004D280EA010000F00040704710B500F02C
:1027D0001AF800BF8900013E00F007B800F009B800
:1027E0005FEA410C5FEA1C6C08D080EA010000F04F
:1027F00050B85FEA400C5FEA1C6CF6D14FF0004025
:10280000A0F5800070470EF1020E2EF0030E5EF868
:10281000044B244204D44FEA4102B2F17F4F11D855
:102820004FEA4003B3F17F4F0CD80ED14FEAD07C72
:10283000B2F17F4F0CEB4C0C0CF1020C08BF4CEBCF
:10284000D17C04E04FF0080C01E04FEAD17C0CEBA6
:102850004C0324FA03F404F00704B4F1040C06D288
:102860000EEB840CBDE810404CF0010C6047DFE833
:102870000CF0070802024FF00040A0F5800010BDE8
:102880000846420018BFD2F1807288BF00F00040B5
:1028900010BDFF2141EAD050C005704790EA010FFA
:1028A00048BF81F000413FF5FCAD421A04D882F0E8
:1028B0000042A0EB020011444FEAD0524FF07F4C8F
:1028C0001CEA410FA2EBD15318BF9CEA026F4AD019
:1028D0004FF0004C4CEA00204CEA012121FA03FCA5
:1028E000B0EB0C0C0FD412F0FE0F36D05FEA4C00A8
:1028F0001DD5001240EBC25038BF70471CF03F0F8F
:1029000018BF70470BE0A2F101025FEA1C2040EB08
:10291000C25038BF70471CF07F0F18BF7047C3F11B
:102920002003994014BF401E20F00100704780082A
:102930004FEA122308BF7047B0FA80FCA2EB0C02EA
:10294000CCF1280C60FA0CF093EA122F04BF00EBD4
:10295000C25070474FEAC3707047130A5FEADC1039
:1029600008BF7047F6E79CEA026F04D010EA5C0FDC
:1029700008BF0020704710B5FFF745FF40DFF63E67
:1029800081F00040704701020203040506070809B0
:102990000A0B0C0D0E0F10100000000000000000CC
:1029A00001020304060708090000000001020304F5
:1029B000344310100134431010010000DC290008DA
:1029C0000000002030000000280100080C2A000848
:1029D00030000020500F00004401000800000000FB
:1029E00000000000000000000000000000000000E7
:1029F00000000000010000001000000000000000C6
:0C2A00000024F4000000000000000000B2
:04000005080000ED02
:00000001FF
